:020000040800F2
:10000000005000203D190008931900089F190008AE
:10001000A5190008AB190008B1190008000000007C
:10002000000000000000000000000000B7190008F8
:10003000C319000800000000CF190008DD190008EE
:1000400091190008911900089119000891190008E8
:100050009119000891190008F9190008311A0008CF
:100060003D1A0008491A0008911900089119000862
:100070006D1A0008791A0008551A0008611A00085C
:1000800091190008911900089119000891190008A8
:100090009119000891190008911900089119000898
:1000A0009119000891190008911900089119000888
:1000B0009119000891190008911900089119000878
:1000C0009119000891190008911900089119000868
:1000D00091190008851A0008911900089119000863
:1000E00091190008911900089119000800000000FA
:1000F0000000000000000000000000000000000000
:0C01000000000000000000005FF808F1A3
:10010C0010B5054C237833B9044B13B10448AFF345
:10011C0000800123237010BD14000020000000009B
:10012C00741D000808B5034B1BB103490348AFF31A
:10013C00008008BD0000000018000020741D00089D
:10014C0081F0004102E000BF83F0004330B54FEA7C
:10015C0041044FEA430594EA050F08BF90EA020FE9
:10016C001FBF54EA000C55EA020C7FEA645C7FEA7C
:10017C00655C00F0E2804FEA5454D4EB5555B8BF9F
:10018C006D420CDD2C4480EA020281EA030382EA10
:10019C00000083EA010180EA020281EA0303362DA2
:1001AC0088BF30BD11F0004F4FEA01314FF4801C75
:1001BC004CEA113102D0404261EB410113F0004F87
:1001CC004FEA03334CEA133302D0524263EB43033E
:1001DC0094EA050F00F0A780A4F10104D5F1200EDC
:1001EC000DDB02FA0EFC22FA05F2801841F1000137
:1001FC0003FA0EF2801843FA05F359410EE0A5F10B
:10020C0020050EF1200E012A03FA0EFC28BF4CF03B
:10021C00020C43FA05F3C01851EBE37101F00045F1
:10022C0007D54FF0000EDCF1000C7EEB00006EEBFE
:10023C000101B1F5801F1BD3B1F5001F0CD3490888
:10024C005FEA30004FEA3C0C04F101044FEA4452DF
:10025C0012F5800F80F09A80BCF1004F08BF5FEA66
:10026C00500C50F1000041EB045141EA050130BD46
:10027C005FEA4C0C404141EB010111F4801FA4F1E9
:10028C000104E9D191F0000F04BF01460020B1FA3E
:10029C0081F308BF2033A3F10B03B3F120020CDA76
:1002AC000C3208DD02F1140CC2F10C0201FA0CF054
:1002BC0021FA02F10CE002F11402D8BFC2F1200CB9
:1002CC0001FA02F120FA0CFCDCBF41EA0C0190406F
:1002DC00E41AA2BF01EB0451294330BD6FEA0404B8
:1002EC001F3C1CDA0C340EDC04F11404C4F12002A3
:1002FC0020FA04F001FA02F340EA030021FA04F3B5
:10030C0045EA030130BDC4F10C04C4F1200220FA0B
:10031C0002F001FA04F340EA0300294630BD21FA49
:10032C0004F0294630BD94F0000F83F4801306BF0F
:10033C0081F480110134013D4EE77FEA645C18BF03
:10034C007FEA655C29D094EA050F08BF90EA020F9A
:10035C0005D054EA000C04BF1946104630BD91EA92
:10036C00030F1EBF0021002030BD5FEA545C05D195
:10037C004000494128BF41F0004130BD14F58004D4
:10038C003CBF01F5801130BD01F0004545F0FE4148
:10039C0041F470014FF0000030BD7FEA645C1ABF7D
:1003AC00194610467FEA655C1CBF0B46024650EAB4
:1003BC00013406BF52EA033591EA030F41F40021E0
:1003CC0030BD00BF90F0000F04BF0021704730B566
:1003DC004FF4806404F132044FF000054FF000013B
:1003EC0050E700BF90F0000F04BF0021704730B5FC
:1003FC004FF4806404F1320410F0004548BF4042D1
:10040C004FF000013EE700BF42004FEAE2014FEA25
:10041C0031014FEA02701FBF12F07F4393F07F4F00
:10042C0081F06051704792F0000F14BF93F07F4F32
:10043C00704730B54FF4607401F0004521F0004175
:10044C0020E700BF50EA010208BF704730B54FF0FB
:10045C0000050AE050EA010208BF704730B511F000
:10046C00004502D5404261EB41014FF4806404F138
:10047C0032045FEA915C3FF4DCAE4FF003025FEABA
:10048C00DC0C18BF03325FEADC0C18BF033202EB42
:10049C00DC02C2F1200300FA03FC20FA02F001FA9C
:1004AC0003FE40EA0E0021FA02F11444C1E600BF3B
:1004BC0070B54FF0FF0C4CF4E06C1CEA11541DBFEE
:1004CC001CEA135594EA0C0F95EA0C0F00F0DEF8B9
:1004DC002C4481EA030621EA4C5123EA4C5350EA9E
:1004EC00013518BF52EA033541F4801143F48013EF
:1004FC0038D0A0FB02CE4FF00005E1FB02E506F080
:10050C000042E0FB03E54FF00006E1FB03569CF0D4
:10051C00000F18BF4EF0010EA4F1FF04B6F5007FDA
:10052C0064F5407404D25FEA4E0E6D4146EB06064C
:10053C0042EAC62141EA55514FEAC52040EA5E50D5
:10054C004FEACE2EB4F1FD0C88BFBCF5E06F1ED87F
:10055C00BEF1004F08BF5FEA500E50F1000041EBB6
:10056C00045170BD06F0004646EA010140EA020063
:10057C0081EA0301B4EB5C04C2BFD4EB0C0541EA85
:10058C00045170BD41F480114FF0000E013C00F39A
:10059C00AB8014F1360FDEBF002001F0004170BDBE
:1005AC00C4F10004203C35DA0C341BDC04F11404D7
:1005BC00C4F1200500FA05F320FA04F001FA05F263
:1005CC0040EA020001F0004221F0004110EBD37030
:1005DC0021FA04F642EB06015EEA430E08BF20EA5C
:1005EC00D37070BDC4F10C04C4F1200500FA04F3FF
:1005FC0020FA05F001FA04F240EA020001F0004191
:10060C0010EBD37041F100015EEA430E08BF20EA03
:10061C00D37070BDC4F1200500FA05F24EEA020E4B
:10062C0020FA04F301FA05F243EA020321FA04F07A
:10063C0001F0004121FA04F220EA020000EBD37031
:10064C005EEA430E08BF20EAD37070BD94F0000F31
:10065C000FD101F00046400041EB010111F4801F65
:10066C0008BF013CF7D041EA060195F0000F18BF16
:10067C00704703F00046520043EB030313F4801F52
:10068C0008BF013DF7D043EA0603704794EA0C0F0C
:10069C000CEA135518BF95EA0C0F0CD050EA410622
:1006AC0018BF52EA4306D1D181EA030101F000419F
:1006BC004FF0000070BD50EA410606BF10461946C7
:1006CC0052EA430619D094EA0C0F02D150EA0136D3
:1006DC0013D195EA0C0F05D152EA03361CBF104614
:1006EC0019460AD181EA030101F0004141F0FE41B3
:1006FC0041F470014FF0000070BD41F0FE4141F437
:10070C00780170BD70B54FF0FF0C4CF4E06C1CEA36
:10071C0011541DBF1CEA135594EA0C0F95EA0C0FEB
:10072C0000F0A7F8A4EB050481EA030E52EA0335A6
:10073C004FEA013100F088804FEA03334FF08055C7
:10074C0045EA131343EA12634FEA022245EA1115F4
:10075C0045EA10654FEA00260EF000419D4208BFA5
:10076C00964244F1FD0404F5407402D25B084FEA52
:10077C003202B61A65EB03055B084FEA32024FF4FE
:10078C0080104FF4002CB6EB020E75EB030E22BF5B
:10079C00B61A754640EA0C005B084FEA3202B6EB1B
:1007AC00020E75EB030E22BFB61A754640EA5C00CA
:1007BC005B084FEA3202B6EB020E75EB030E22BF5A
:1007CC00B61A754640EA9C005B084FEA3202B6EB5B
:1007DC00020E75EB030E22BFB61A754640EADC001A
:1007EC0055EA060E18D04FEA051545EA16754FEA7C
:1007FC0006164FEAC30343EA52734FEAC2025FEA9A
:10080C001C1CC0D111F4801F0BD141EA00014FF028
:10081C0000004FF0004CB6E711F4801F04BF0143F9
:10082C000020B4F1FD0C88BFBCF5E06F3FF6AFAE15
:10083C00B5EB030C04BFB6EB020C5FEA500C50F1A5
:10084C00000041EB045170BD0EF0004E4EEA113128
:10085C0014EB5C04C2BFD4EB0C0541EA045170BD2F
:10086C0041F480114FF0000E013C90E645EA060E73
:10087C008DE60CEA135594EA0C0F08BF95EA0C0FA1
:10088C003FF43BAF94EA0C0F0AD150EA01347FF4E9
:10089C0034AF95EA0C0F7FF425AF104619462CE7C0
:1008AC0095EA0C0F06D152EA03353FF4FDAE104623
:1008BC00194622E750EA410618BF52EA43067FF474
:1008CC00C5AE50EA41047FF40DAF52EA43057FF404
:1008DC00EBAE12E74A0011D212F5001211D20DD56F
:1008EC006FF47873B3EB62520ED44FEAC12343F02A
:1008FC00004343EA505323FA02F070474FF00000D4
:10090C00704750EA013002D14FF0FF3070474FF082
:10091C000000704780F0004002E000BF81F0004111
:10092C0042001FBF5FEA410392EA030F7FEA226C89
:10093C007FEA236C6AD04FEA1262D2EB1363C1BF19
:10094C00D218414048404140B8BF5B42192B88BF88
:10095C00704710F0004F40F4000020F07F4018BFAB
:10096C00404211F0004F41F4000121F07F4118BFCB
:10097C00494292EA030F3FD0A2F1010241FA03FC73
:10098C0010EB0C00C3F1200301FA03F100F000435B
:10099C0002D5494260EB4000B0F5000F13D3B0F123
:1009AC00807F06D340084FEA310102F10102FE2A92
:1009BC0051D2B1F1004F40EBC25008BF20F0010002
:1009CC0040EA03007047490040EB000010F4000FB0
:1009DC00A2F10102EDD1B0FA80FCACF1080CB2EB43
:1009EC000C0200FA0CF0AABF00EBC25052421843A2
:1009FC00BCBFD0401843704792F0000F81F4000147
:100A0C0006BF80F400000132013BB5E74FEA410319
:100A1C007FEA226C18BF7FEA236C21D092EA030F85
:100A2C0004D092F0000F08BF0846704790EA010FFF
:100A3C001CBF0020704712F07F4F04D1400028BF2C
:100A4C0040F00040704712F100723CBF00F500000E
:100A5C00704700F0004343F0FE4040F40000704744
:100A6C007FEA226216BF08467FEA236301464202F0
:100A7C0006BF5FEA412390EA010F40F48000704703
:100A8C004FF0000304E000BF10F0004348BF4042A9
:100A9C005FEA000C08BF704743F0964301464FF0E5
:100AAC0000001CE050EA010208BF70474FF0000341
:100ABC000AE000BF50EA010208BF704711F0004382
:100ACC0002D5404261EB41015FEA010C02BF844652
:100ADC000146002043F0B64308BFA3F18053A3F5B1
:100AEC000003BCFA8CF2083AA3EBC25310DB01FAF8
:100AFC0002FC634400FA02FCC2F12002BCF1004F7C
:100B0C0020FA02F243EB020008BF20F0010070470C
:100B1C0002F1200201FA02FCC2F1200250EA4C0060
:100B2C0021FA02F243EB020008BF20EADC707047A6
:100B3C004FF0FF0C1CEAD0521EBF1CEAD15392EAB4
:100B4C000C0F93EA0C0F6FD01A4480EA010C400290
:100B5C0018BF5FEA41211ED04FF0006343EA5010EA
:100B6C0043EA5111A0FB01310CF00040B1F5000F2C
:100B7C003EBF490041EAD3715B0040EA010062F1DB
:100B8C007F02FD2A1DD8B3F1004F40EBC25008BFC5
:100B9C0020F00100704790F0000F0CF0004C08BFE3
:100BAC0049024CEA502040EA51207F3AC2BFD2F1B0
:100BBC00FF0340EAC250704740F400004FF00003BE
:100BCC00013A5DDC12F1190FDCBF00F000407047F8
:100BDC00C2F10002410021FA02F1C2F1200200FA36
:100BEC0002FC5FEA310040F1000053EA4C0308BFFD
:100BFC0020EADC70704792F0000F00F0004C02BF4E
:100C0C00400010F4000F013AF9D040EA0C0093F0C8
:100C1C00000F01F0004C02BF490011F4000F013B22
:100C2C00F9D041EA0C018FE70CEAD15392EA0C0F90
:100C3C0018BF93EA0C0F0AD030F0004C18BF31F0FB
:100C4C00004CD8D180EA010000F00040704790F0D1
:100C5C00000F17BF90F0004F084691F0000F91F075
:100C6C00004F14D092EA0C0F01D142020FD193EA3B
:100C7C000C0F03D14B0218BF084608D180EA0100C3
:100C8C0000F0004040F0FE4040F40000704740F09F
:100C9C00FE4040F4400070474FF0FF0C1CEAD0526D
:100CAC001EBF1CEAD15392EA0C0F93EA0C0F69D0C9
:100CBC00A2EB030280EA010C49024FEA402037D034
:100CCC004FF0805343EA111143EA10130CF000402B
:100CDC008B4238BF5B0042F17D024FF4000C8B421B
:100CEC0024BF5B1A40EA0C00B3EB510F24BFA3EBFB
:100CFC00510340EA5C00B3EB910F24BFA3EB9103CB
:100D0C0040EA9C00B3EBD10F24BFA3EBD10340EA24
:100D1C00DC001B0118BF5FEA1C1CE0D1FD2A3FF66A
:100D2C0050AF8B4240EBC25008BF20F0010070471F
:100D3C000CF0004C4CEA50207F32C2BFD2F1FF03C2
:100D4C0040EAC250704740F400004FF00003013AF3
:100D5C0037E792F0000F00F0004C02BF400010F497
:100D6C00000F013AF9D040EA0C0093F0000F01F0AB
:100D7C00004C02BF490011F4000F013BF9D041EACD
:100D8C000C0195E70CEAD15392EA0C0F08D1420200
:100D9C007FF47DAF93EA0C0F7FF470AF084676E7D3
:100DAC0093EA0C0F04D14B023FF44CAF08466EE7AC
:100DBC0030F0004C18BF31F0004CCAD130F000427A
:100DCC007FF45CAF31F000437FF43CAF5FE700BFD2
:100DDC0080B483B000AF78600B46FB707B68002B4F
:100DEC003AD0204B1B6803F00103012B0CD11D4A98
:100DFC001C4B1B6823F00103136000BF194B1B68CD
:100E0C0003F00103012BF9D0164A7B68D360154A15
:100E1C00FB785360144A144B5B6843F02003536017
:100E2C00114A114B5B6843F0100353600F4A0F4B90
:100E3C009B8A9BB223F080039BB293820B4A0B4B91
:100E4C009B8A9BB243F080039BB29382054A054B6D
:100E5C001B6843F00103136000BF0C37BD4680BC18
:100E6C00704700BF1C0002400000024000480040D8
:100E7C0080B483B000AF78600B46FB707B68002BAE
:100E8C003AD0204B1B6803F00103012B0CD11D4AF7
:100E9C001C4B1B6823F00103136000BF194B1B682C
:100EAC0003F00103012BF9D0164A7B68D360154A75
:100EBC00FB785360144A144B5B6843F40073536023
:100ECC00114A114B5B6843F4807353600F4A0F4B0C
:100EDC009B8A9BB223F040039BB293820B4A0B4B31
:100EEC009B8A9BB243F040039BB29382054A054B0D
:100EFC001B6843F00103136000BF0C37BD4680BC78
:100F0C00704700BF30000240000002400048004023
:100F1C0090B583B000AF0023FB71294A284B9B8905
:100F2C009BB223F400539BB29381254C25494FF47B
:100F3C00165000F079FC03462381214A204B9B89F3
:100F4C009BB243F400539BB2938100BF1C4B1B8894
:100F5C009BB203F08003002BF8D0194BF0229A803F
:100F6C0000BF174B1B889BB203F04003002BF8D03B
:100F7C00134B9B88BB80BB88F02B04D0BB88002B09
:100F8C0001D00123FB710E4A0D4B9B899BB223F4BC
:100F9C0000539BB293810A4C0A494FF4E13000F0A4
:100FAC0043FC03462381064A054B9B899BB243F4C1
:100FBC0000539BB29381FB7918460C37BD4690BD0C
:100FCC000048004000127A0080B400AF104A104B69
:100FDC009B6943F0080393610E4A0E4B5B6823F444
:100FEC00407353600B4A0B4B5B6843F400735360C4
:100FFC00084A084B5B6823F440635360054A054B71
:10100C005B6843F40063536000BFBD4680BC70470F
:10101C0000100240000C014080B400AF2C4A2C4B55
:10102C005B6943F0010353612A4B1B6803F0010316
:10103C00012B0CD1274A274B1B6823F001031360AB
:10104C0000BF244B1B6803F00103012BF9D0214A8C
:10105C00204B1B6823F4407313601E4A1D4B1B6806
:10106C0023F4406313601B4A1A4B1B6843F4405330
:10107C001360184A174B1B6823F040031360154A82
:10108C00144B1B6843F080031360124A114B1B680E
:10109C0023F0200313600F4A0E4B1B6823F480438C
:1010AC0013600C4A0B4B1B6843F010031360094A86
:1010BC00084B1B6843F002031360064B064A9A6008
:1010CC0000BF00BF00BF00BF00BFBD4680BC704763
:1010DC00001002401C0002400448004080B500AFE4
:1010EC002A4A2A4B5B6943F001035361284B1B6866
:1010FC0003F00103012B09D1254800F0EFF900BFE3
:10110C00234B1B6803F00103012BF9D0204A204B21
:10111C001B6823F4407313601D4A1D4B1B6823F49A
:10112C00406313601A4A1A4B1B6843F44053136014
:10113C00174A174B1B6823F040031360144A144BD7
:10114C001B6843F080031360114A114B1B6823F09A
:10115C00200313600E4A0E4B1B6823F4804313606C
:10116C000B4A0B4B1B6823F010031360084A084B07
:10117C001B6843F002031360054B064A9A6000BFDC
:10118C0000BF00BF00BF00BF80BD00BF0010024009
:10119C00300002400448004080B400AF104A104BAD
:1011AC00DB6943F48023D3610E4A0E4B9B899BB2BF
:1011BC0023F480539BB293810A4A0A4B1B8A9BB23D
:1011CC0023F440539BB21382064A064B9B8A9BB274
:1011DC0043F008039BB2938200BFBD4680BC7047AE
:1011EC00001002400048004080B400AF0D4A0D4B87
:1011FC009B899BB243F400539BB29381094A094BE0
:10120C009B899BB243F008039BB29381054A054B23
:10121C009B899BB243F004039BB2938100BFBD46F4
:10122C0080BC70470048004080B584B000AF0023FC
:10123C00FB71FFF76DFE0346FB71FB79012B45D16A
:10124C0010212648FFF7C4FD40F2EE2000F0D6F83E
:10125C00FFF75EFE20212248FFF70AFE20212148DD
:10126C00FFF7B6FD00BF204B1B78002BFBD01E4BAD
:10127C0000221A700023FB811023BB6014E0184A73
:10128C00BB6813441B78FF2B08D1FB895B089BB20E
:10129C006FEA43436FEA5343FB8102E0FB895B082F
:1012AC00FB81BB680133BB60BB681F2BE7DDFB898F
:1012BC001846FFF7E5FB03464FF083411846FFF74E
:1012CC00EBFC03461A46094B1A6003E0074B4FF040
:1012DC0000021A6000BF1037BD4680BD8C1D00088F
:1012EC00300000209C1D00085000002054000020FD
:1012FC0080B400AF0A4B1B6803F02003202B0BD1EA
:10130C00074A074B5B6843F020035360044A044BC5
:10131C005B6843F01003536000BFBD4680BC704750
:10132C000000024080B400AF0C4B1B6803F4007348
:10133C00B3F5007F0ED1094A084B5B6843F4007388
:10134C005360064A054B5B6843F480735360044B4F
:10135C0001221A7000BFBD4680BC704700000240DD
:10136C005000002080B483B000AF03463960FB719D
:10137C0097F90730002B0BDA0D49FB7903F00F03BB
:10138C00043B3A68D2B21201D2B20B441A7609E08D
:10139C00084997F907303A68D2B21201D2B20B441D
:1013AC0083F8002300BF0C37BD4680BC704700BFDC
:1013BC0000ED00E000E100E080B582B000AF7860A5
:1013CC007B68B3F1807F01D3012311E00A4A7B686B
:1013DC0023F07F43013B53600F214FF0FF30FFF7A9
:1013EC00C1FF054B00229A60034B07221A600023B1
:1013FC0018460837BD4680BD10E000E080B485B0CB
:10140C0000AF7860074B1B68FB6000BF054B1A6888
:10141C00FB68D21A7B689A42F8D300BF1437BD46DA
:10142C0080BC70475800002080B582B000AF00F03F
:10143C005DFB0E4B1B680E4A934200D0FEE70B4B34
:10144C001B680C4AA2FB03239B091846FFF7B4FF49
:10145C0078607B68002B00D0FEE700214FF0FF3056
:10146C00FFF780FF00BF0837BD4680BD000000209D
:10147C0000127A00D34D621080B483B000AF786054
:10148C000B46FB701346BB70FB78012B0BD111493B
:10149C00104B5B68BA78013A9200012000FA02F214
:1014AC0013434B600AE00C490B4B5B68BA78013A6A
:1014BC009200012000FA02F213434B607B681B6818
:1014CC0043F001027B681A6000BF0C37BD4680BC3C
:1014DC00704700BF000002400004024080B483B09B
:1014EC0000AF78607B681B6823F001027B681A6090
:1014FC0000BF0C37BD4680BC7047000080B400AF05
:10150C00104A104B9B6943F0100393610E4A0E4B2B
:10151C005B6823F4401353600B4A0B4B5B6843F43A
:10152C0000135360084A084B5B6823F44003536074
:10153C00054A054BDB6843F40053D36000BFBD463E
:10154C0080BC7047001002400010014080B485B090
:10155C0000AF78607B6803F00703FB600C4BDB6823
:10156C00BB60BA684FF6FF031340BB60FB681A02FE
:10157C00BB68134343F0BF6343F40033BB60044ABE
:10158C00BB68D36000BF1437BD4680BC704700BF3A
:10159C0000ED00E080B483B000AF0346FB71084956
:1015AC0097F907305B09FA7902F01F02012000FA63
:1015BC0002F241F8232000BF0C37BD4680BC7047B7
:1015CC0000E100E080B483B000AF03463960FB71EA
:1015DC0097F90730002B0BDA0D49FB7903F00F0359
:1015EC00043B3A68D2B21201D2B20B441A7609E02B
:1015FC00084997F907303A68D2B21201D2B20B44BB
:10160C0083F8002300BF0C37BD4680BC704700BF79
:10161C0000ED00E000E100E080B500AF0320FFF733
:10162C0095FF01210620FFF7CDFF01210D20FFF7CB
:10163C00C9FF01210E20FFF7C5FF01210F20FFF785
:10164C00C1FF01210C20FFF7BDFF01210D20FFF789
:10165C00B9FF01212520FFF7B5FF01212720FFF756
:10166C00B1FF0620FFF796FF0D20FFF793FF0E202A
:10167C00FFF790FF0F20FFF78DFF0C20FFF78AFF7D
:10168C000D20FFF787FF2520FFF784FF2720FFF7AA
:10169C0081FF00BF80BD000080B483B000AF034663
:1016AC00FB71094997F907305B09FA7902F01F02BF
:1016BC00012000FA02F2403341F8232000BF0C371E
:1016CC00BD4680BC704700BF00E100E080B582B031
:1016DC0000AF194B1B889BB203F00103012B0FD1F8
:1016EC0000BF154B1B889BB203F02003202BF8D1B5
:1016FC00114B9B88114B01221A701148FFF7EEFE1B
:10170C000D4B1B889BB203F01003102B0FD10A4B0F
:10171C001B889BB203F010037B60074B9B889BB22A
:10172C007B600748FFF7DAFE0F20FFF7B5FF00BF1D
:10173C000837BD4680BD00BF003801405C0000206A
:10174C005800024080B500AF0F4B1B6803F40053E8
:10175C00B3F5005F10D10C4A0B4B5B6843F400539C
:10176C00536000BF094B1B889BB203F04003402B16
:10177C00F8D10748FFF7B2FE034A034B5B6843F40A
:10178C008053536000BF80BD000002400038014010
:10179C004400024080B582B000AF1D4B5B68DAB2EA
:1017AC006FF037039B1ADAB21A4B1A70184B1A4A9D
:1017BC00DA60174BC8225A6000237B600BE0164A94
:1017CC007B6813441978154A7B6813440A461A70CF
:1017DC007B6801337B600F4B1B781A467B689A42FF
:1017EC00EDDC0F4B1B78002B02D00A4B00221A7039
:1017FC000C4A0C4B5B6843F4803353600522012187
:10180C000348FFF739FE00BF0837BD4680BD00BF57
:10181C0058000240280100202C010020600000200C
:10182C005C00002000000240B0B586B000AF7860CC
:10183C0039604FF000034FF00004C7E904343868F6
:10184C00FEF7C0FD04460D467868FEF7BBFD4FF071
:10185C0000022A4BFEF72CFE02460B462046294678
:10186C00FEF750FF03460C46C7E90434D7E90401E0
:10187C00FFF730F803469BB21846FEF7B3FD03465C
:10188C000C461A462346D7E90401FEF75DFC0346D5
:10189C000C46184621464FF00002184BFEF708FE86
:1018AC0003460C461846214600F018FA03460C462F
:1018BC0018462146FFF70EF80346FB73FB7B0F2BF4
:1018CC000CD90023FB734FF000020D4BD7E9040138
:1018DC00FEF73CFC03460C46C7E90434D7E9040187
:1018EC00FEF7F8FF03469BB21B019AB2FB7B9BB23F
:1018FC0013449BB218461837BD46B0BD00003040AB
:10190C000000F03F80B500AFFFF78EFDFFF7F6FD4E
:10191C00FFF782FEFFF758FBFFF73EFCFFF77CFB5F
:10192C00FFF7DCFB62B6FFF75FFCFFF77DFCFCE723
:10193C00DFF838D072B6002103E00D4B5B584350F2
:10194C0004310C480C4B42189A42F6D30B4A02E075
:10195C00002342F8043B0A4B9A42F9D300F092F868
:10196C0000F098F9FFF7CEFF704700000050002000
:10197C00C41D0008000000201400002014000020EA
:10198C00F4010020FEE780B400AF00BFBD4680BC70
:10199C00704780B400AFFEE780B400AFFEE780B4C0
:1019AC0000AFFEE780B400AFFEE780B400AF00BF2D
:1019BC00BD4680BC704780B400AF00BFBD4680BC44
:1019CC00704780B400AF00BFBD4680BC70470000BC
:1019DC0080B400AF044B1B680133034A136000BF93
:1019EC00BD4680BC704700BF5800002080B500AFDA
:1019FC000A4B00221A604FF47A70FFF7FFFC074B7A
:101A0C0001221A604FF47A70FFF7F8FC044A044B79
:101A1C005B6943F00103536100BF80BDB4012242F6
:101A2C000004014080B400AF00BFBD4680BC7047CD
:101A3C0080B400AF00BFBD4680BC704780B400AF1F
:101A4C0000BFBD4680BC704780B500AFFFF77AFE83
:101A5C0000BF80BD80B500AFFFF79CFE00BF80BD0E
:101A6C0080B500AFFFF744FC00BF80BD80B500AF70
:101A7C00FFF758FC00BF80BD80B500AFFFF726FE16
:101A8C0000BF80BD80B500AF154A154B1B6843F0F5
:101A9C00010313601249124B5A68124B13404B60EE
:101AAC000F4A0F4B1B6823F0847323F480331360AD
:101ABC000B4A0B4B1B6823F480231360084A084B1A
:101ACC005B6823F4FE035360054B4FF41F029A60CE
:101ADC0000F078F8044B4FF000629A6000BF80BDB4
:101AEC00001002400000FFF800ED00E080B485B06B
:101AFC0000AF0023FB600023BB6000237B602C4BFA
:101B0C005B6803F00C03FB60FB68042B07D0082B0D
:101B1C0009D0002B33D1274B274A1A6033E0254BD1
:101B2C00254A1A602FE0224B5B6803F47013BB60EC
:101B3C001F4B5B6803F480337B60BB689B0C0233E8
:101B4C00BB607B68002B06D1BB681C4A02FB03F30D
:101B5C00184A136017E0164B5B6803F40033002B34
:101B6C0006D0BB68154A02FB03F3124A13600AE065
:101B7C00BB68114A02FB03F30E4A136003E00D4BE2
:101B8C000D4A1A6000BF0A4B5B681B0903F00F0378
:101B9C000B4AD35CDBB2FB60064B1A68FB6822FA7B
:101BAC0003F3044A136000BF1437BD4680BC704772
:101BBC00001002400000002000127A0000093D00D5
:101BCC000400002080B500AF00F002F800BF80BD1B
:101BDC0080B483B000AF00237B6000233B602B4AB2
:101BEC002A4B1B6843F480331360284B1B6803F4A7
:101BFC0000333B607B6801337B603B68002B03D177
:101C0C007B68B3F5A06FF0D1204B1B6803F4003355
:101C1C00002B02D001233B6001E000233B603B68BA
:101C2C00012B2ED11A4A1A4B1B6843F01003136078
:101C3C00174A174B1B6823F003031360144A144B09
:101C4C001B681360114A114B5B6853600F4A0F4BB2
:101C5C005B6853600D4A0D4B5B6853600B4A0B4B32
:101C6C005B6823F003035360084A084B5B6843F03E
:101C7C000103536000BF054B5B6803F00C03042B9E
:101C8C00F9D100BF0C37BD4680BC70470010024034
:101C9C000020024070B500250C4E0D4CA41BA41066
:101CAC00A54209D100F060F800250A4E0A4CA41B8D
:101CBC00A410A54205D170BD56F8253098470135C2
:101CCC00EEE756F8253098470135F2E7BC1D0008C1
:101CDC00BC1D0008BC1D0008C01D0008F8B5C1F3F0
:101CEC000A57A7F2FF34132C06460D460B468E46B8
:101CFC0017DC002C09DA013401F0004303D143F066
:101D0C007F5343F44013002229E0164921410D4230
:101D1C0000D188B14FF400232341734423EA01031B
:101D2C00F1E7332C0BDDB4F5806F05D102460B4681
:101D3C00FEF70CFA06460D4630462946F8BD4FF024
:101D4C00FF30A7F21347F8400642F5D00121C4F149
:101D5C003304A1408A1928BF013322EA0002194634
:101D6C001046E7E7FFFF0F00F8B500BFF8BC08BC52
:101D7C009E467047F8B500BFF8BC08BC9E4670473D
:101D8C000000FFFF0000FFFF0000FF000000FF004D
:101D9C000000FFFF0000FFFF00FFFFFFFFFF00FF41
:101DAC00FFFFFFFFFFFFFFFFFFFFFFFFFFFFFFFF37
:041DBC0031010008E9
:041DC0000D01000809
:101DC40000127A0000000000000000000102030479
:041DD40006070809ED
:040000050800193D99
:00000001FF
